:020000040800F2
:10000000681A0020FD020008213900083534000874
:100010001D39000805090008C5420008000000005D
:100020000000000000000000000000002939000866
:100030000909000800000000253900082D390008D2
:100040001703000817030008170300081703000828
:100050001703000817030008170300081703000818
:100060001703000817030008170300081703000808
:1000700017030008170300081703000817030008F8
:10008000170300080000000017030008170300080A
:1000900017030008170300081703000817030008D8
:1000A00017030008170300081703000817030008C8
:1000B00017030008170300081703000817030008B8
:1000C00017030008170300081703000817030008A8
:1000D00017030008B94200081703000817030008B7
:1000E0001703000817030008170300081703000888
:1000F000170300081703000817030008000000009A
:1001000000000000170300080000000017030008AB
:100110001703000800000000170300081703000879
:100120001703000817030008170300081703000847
:10013000170300080000000000000000170300087B
:10014000170300081703000800000000000000006B
:10015000000000000000000000000000000000009F
:10016000000000000000000000000000170300086D
:10017000170300080000000000000000000000005D
:10018000000000001703000800000000000000004D
:10019000000000000000000000000000000000005F
:1001A000000000000000000017030008170300080B
:1001B00017030008170300081703000800000000D9
:1001C000000000001703000800000000000000000D
:1001D000170300081703000800F002F800F07EF88B
:1001E00014A696E8000CB244B344DA4501D100F0FD
:1001F00075F8BAE80F000FA696E83000A5EB0405E5
:1002000004EB0607AAEB0704A7F101074FEA15154F
:100210004FEA3414A4F10104AC4201D300F05EF8BB
:1002200013F0010F18BFFB1A43F0010300F001F8AF
:10023000DBE7184798460000B84600000A4410F86B
:10024000013B13F0030408BF10F8014B1D1108BF58
:1002500010F8015B641E05D010F8016B641E01F8F4
:10026000016BF9D1002D15D010F8014B03F00C03F0
:100270000C2BA1EB04040ABF10F8013BA4EB831480
:10028000A4EB032405F1010314F8016B5B1E01F8D4
:10029000016BF9D5914238BF10F8013BD1D37047BB
:1002A000704700000023002400250026103A28BFD4
:1002B00078C1FBD8520728BF30C148BF0B607047D8
:1002C000752900F01781732900F09F820020704784
:1002D0001FB504F0A9FA1FBD10B510BD00F099FAC2
:1002E0001146FFF7F5FF04F05FF900F0B7FA03B429
:1002F000FFF7F2FF03BC00F0BFFA00000948804797
:1003000009480047FEE7FEE7FEE7FEE7FEE7FEE7F7
:10031000FEE7FEE7FEE7FEE704480549054A064B0F
:100320007047000045390008D90100086814002012
:10033000681A0020681600206816002053EA020C94
:1003400000F069802DE9F04B4FF00006002B1FBF35
:10035000B3FA83F503FA05F424FA05F65E4012BFFA
:100360001643B2FA82F502FA05F4C5F120051EBF64
:1003700022FA05FC44EA0C04203556EA044C4FEA04
:10038000144418BF641C4FF000084FF0000990425D
:1003900071EB030C39D3002919BFB1FA81F701FAC7
:1003A00007F6B0FA80F700FA07F6C7F120071EBF7C
:1003B00020FA07FC46EA0C062037B6FBF4FCA7EB54
:1003C0000507103F07F01F0BCBF120062CFA06F6AD
:1003D0000CFA0BFB44BFB3460026202FA4BF5E4699
:1003E0004FF0000B5BEA060C08BF4FF0010B19EB56
:1003F0000B0948EB0608ABFB027C06FB02CC0BFBAF
:1004000003CCC01B71EB0C01C1E70B460246414611
:100410004846BDE8F08B13B5084318BF4FF0FF30D6
:100420000146AFF30080BDE81C4070470FB41CB517
:10043000074B06AA7B4469460090059800F0BBF97B
:100440000020694600F0CAF91CBC5DF814FB0000EE
:10045000A503000070B5044685690068C10601D592
:10046000302600E02026C00707D070BDD4E9012166
:1004700030469047206A401C20626D1EF6D570BD44
:1004800070B5044685690078C00707D170BDD4E90E
:10049000012120209047206A401C20626D1EF6D565
:1004A00070BD70B50C460546012A05D02878800637
:1004B00000D5EA69002302E0012305E05B1C9342BA
:1004C00002D2E05C0028F9D1A869E618C01AA86138
:1004D000286A184428622846FFF7BCFF04E0D5E9E3
:1004E000012114F8010B9047B442F8D32846FFF7D6
:1004F000C7FF70BD2DE9F04106460024106875293C
:10050000314616A510D0AFF30080002802DA404231
:1005100013A507E031688A0701D512A502E0490753
:1005200004D511A5012401E0AFF3008000210A22C7
:1005300006F1240709E0B0FBF2FCB0FBF2F302FB8A
:100540001C00303078541846491C0028F3D123464B
:100550002A463046BDE8F04100F0CEB80000000069
:100560002D0000002B000000200000002DE9F05FAE
:10057000894604464FF0000ADFF824B1FB44C0F876
:1005800020A02046E168884700287DD0252806D095
:10059000D4E901219047206A401C2062F1E7002540
:1005A0005F462046E16888472028064607DB312E53
:1005B00005D2B81910F8200C08B10543F1E7A807D7
:1005C00001D525F00405C4F81CA00027C4F818A024
:1005D0002A2E09D0304604F020F938B304EB8708FE
:1005E000303EC8F8186019E059F8041B204604EBA7
:1005F00087029161E1688847012F064618D1E069BA
:10060000002820DA25F020051DE0D8F8180000EBBE
:10061000800006EB40003038C8F818002046E1683A
:100620008847064604F0F9F80028EED1012F0AD0D9
:100630002E2E08D12046E16888477F1C0646022FEF
:1006400045F02005C4DBA069002803DA404245F0EC
:100650000105A061E80701D025F01005A6B1A6F1BB
:100660004100192802D8203645F400654A46314633
:10067000204625604D46FFF723FE60B1012807D0D4
:10068000ED1D25F0070000E007E000F1080978E71C
:1006900005F1040975E730467AE7206ABDE8F09F66
:1006A000C24200004FF0000200B513469446964641
:1006B000203922BFA0E80C50A0E80C50B1F1200175
:1006C000BFF4F7AF090728BFA0E80C5048BF0CC023
:1006D0005DF804EB890028BF40F8042B08BF704781
:1006E00048BF20F8022B11F0804F18BF00F8012BF3
:1006F00070477047704770472DE9F0470D4699469F
:100700009246044600F124080168880604D5E06991
:1007100021F01001216000E00120A84201DD471B0B
:1007200000E00027A1697A1902EB0900081AA0610C
:100730002078C00602D42046FFF78CFE002608E091
:10074000D4E901211AF806009047206A401C761C63
:1007500020624E45F4DB2078C0060AD52046FFF71C
:1007600079FE06E0D4E9012130209047206A401C40
:100770002062381EA7F10107F4DC07E0D4E901216B
:1007800018F805009047206A401C2062281EA5F139
:100790000105F3DC2046FFF773FE2078000602D542
:1007A0000220BDE8F0870120FBE7000001694A1C38
:1007B00002610878704700B58FB0CDE901310021A2
:1007C000059105497944CDE9031011466846FFF7C4
:1007D000CDFE0FB000BD0000E5FFFFFF0A6802F884
:1007E000010B0A60704710B5436913B1AFF3008085
:1007F00001E0FFF756FE012010BD127800F1240140
:100800000A7000224A700122EDE711684FF0FF32B2
:10081000E9E7754600F02CF8AE46050069465346F8
:1008200020F00700854618B020B5FFF775FDBDE83C
:1008300020404FF000064FF000074FF000084FF047
:10084000000BAC46ACE8C009ACE8C009ACE8C00994
:10085000ACE8C00921F007018D46704710B5044689
:10086000AFF300802046BDE81040FFF740BD000018
:1008700000487047E011002001491820ABBEFEE798
:100880002600020070470000B0B5016804468A687F
:100890008868C0074FF0000031D012F0020218BF84
:1008A000B0BD886800F00D0001281FD188684FF6A0
:1008B000C072C7F6FF7210400230886003200860E3
:1008C00000F030FD21688968C90704BF0020B0BD71
:1008D000054602E08068C00712D000F023FD411BEE
:1008E00020680329F6D38168C907F3D0E06D40F092
:1008F0001000E065206E40F0010020660120B0BDD0
:100900000020B0BDFEE7000070470000EFF310804C
:1009100072B600BFFEE70000B0B582B0044600200A
:10092000019094F85800012802D1022002B0B0BD15
:10093000012084F8580020460D46FFF7A5FFE16D21
:1009400010B141F010014BE041F20212914302312B
:10095000E16521684FF6C073D1F808C0C3F6FF7394
:1009600003EA0C0305F080454DF601622B44C0F20A
:10097000040203F100438B608B68B3F1FF3F2BDC73
:10098000019B01330193019B93421DD88B68B3F106
:10099000FF3F21DC019B01330193019B934213D85C
:1009A0008B68B3F1FF3F17DC019B01330193019B7F
:1009B000934209D88B68B3F1FF3F0DDC019B0133F3
:1009C0000193019B9342D7D9E06D40F0100020F0D5
:1009D0000201012004E000BFE16D012262F3010188
:1009E000E165002184F8581002B0B0BDF0B581B0C7
:1009F0000022009290F85820012A03D102210846D3
:100A000001B0F0BD0123076880F85830BB685B0770
:100A100034D4D1E900351F26C5F3012407EB840443
:100A2000226B05F01F05AE40C3F38463B243AB40B5
:100A30001A432263BA68BB6802F0040203F0080399
:100A4000D21840F0BC800A6807F114030426C2F3F0
:100A50004064D1F808E006EAD25C53F82440C2F3BF
:100A600004550722AA40BEF1004F24EA02040BD12C
:100A700043F80C401A6842F000430DE0C16D41F0AC
:100A80002001C165012178E10EFA05F2224343F805
:100A90000C201A6822F000437B61D1E90435FC6820
:100AA000042B5FD13A6E3A6E0B68C2F3846293FAFC
:100AB000A3F6C3F3846C6FF3DF43B6FA86F5002B1D
:100AC0002C464FF6FF7E08BF6446A242C0F2070ED6
:100AD0000CD13A6E22F000423A660A6802EA0E032E
:100AE000C2F3846C92FAA2F2B2FA82F57A6E7A6E4E
:100AF000002BC2F384622C4608BF6446A2420CD18C
:100B00007A6E22F000427A660A6802EA0E03C2F3A5
:100B1000846C92FAA2F2B2FA82F5BA6EBA6E002B27
:100B2000C2F384622C4608BF6446A2420CD1BA6E5E
:100B300022F00042BA660A6802EA0E03C2F3846C2D
:100B400092FAA2F2B2FA82F5FA6EFA6E002BC2F3B2
:100B5000846208BF6546AA4231D1FA6E22F0004293
:100B6000FA662CE0062202EA940205FA02FC0E68FC
:100B700007F1600555F823404FF20002C0F2FF3242
:100B800006F0F846224046EA0C06324342F00042A4
:100B900045F823200A698B6955F8226026F0807693
:100BA000334345F822300A690B7F55F82260012B48
:100BB00026F0007608BF06F1007645F82260BA6894
:100BC0000D68D20750D1CA68D7F8B0602B466FF3D2
:100BD000DF4326EA030C4FF6FF7602F01804C0F25A
:100BE0000706E64000242E40C4F27F0446EA0C06C5
:100BF000A242C7F8B06037D193B195FAA5F2B2FA24
:100C000082F2013202F01E03092B02F01F0310D8FA
:100C100001229A4003EB430342EA035315E000BF6D
:100C2000012202EB956202F01E030A2B02F01F0361
:100C3000EED3012200269A4003EB4303CFF6206651
:100C400006EB03531A4342F00073C3F3406607EB0D
:100C500086068A687569C3F3045307249C40A5433C
:100C60009A402A4372610D680021C8F208010D42C2
:100C700000F0828040F2083CC5F2000CDCF8004035
:100C80000021CCF221318D4204F0E07E04D010210D
:100C9000C9F2C0018D4241D1B7F1A04F4FF0000120
:100CA00008BF14F4000268D1DCF8001042F6635269
:100CB00021F0E07141EA0E0141F40001CCF800108E
:100CC00041F2D811C2F200010968C0F23E5289090E
:100CD000A1FB0212910901EB41010C2202EB8101FF
:100CE00000910099002947D000990139009100999D
:100CF000002941D00099013900910099E1B3009990
:100D0000013900910099B9B3009901390091009916
:100D100000294FF00001E7D12FE000BF0021CCF205
:100D200052718D4210D10021B1EB1E6F0CD1ACF588
:100D300002718F4220D0DCF8001021F0E07141EA0E
:100D40000E0141F0807115E0ACF502718F424FF059
:100D5000000112D00022CCF68432954208BF14F470
:100D600080020AD1DCF8001021F0E07141EA0E01A6
:100D700041F48001CCF800100021002280F85820B6
:100D8000084601B0F0BD0000B0B582B004460020B6
:100D900001904CB1E06D58B121688868800012D490
:100DA0008868C00019D54CE0012002B0B0BD00BF7A
:100DB000204600F009F90020206684F858002168D8
:100DC00088688000ECD588684FF6C072C5F6FF725F
:100DD000104088608868C00033D44FF6C0728868BD
:100DE000C5F6FF7202F18052104000F18050886019
:100DF00041F2D810C2F20000006842F66352800946
:100E0000C0F23E52A0FB02029009022202EB400017
:100E100001900198A8B100BF019801380190019894
:100E200078B1019801380190019850B101980138CA
:100E30000190019828B1019801380190019800288B
:100E4000EAD18868C00009D4E06D40F01000E06588
:100E5000206E40F001002066012000E000208A683A
:100E6000E36D02F0040203F01003D218E26D71D1B9
:100E700022F481720232E2658A68D2071AD140F206
:100E8000083C4FF600534FF60062C5F2000CCFF657
:100E9000FF73CFF6FF725CF803305CF802201A4350
:100EA000D20707D16268DCF8003023F47C131A43C0
:100EB000CCF8002094F81DE0E36BD4E902C243EAC9
:100EC0004E331A4394F8243042EA0C02012B42EAD2
:100ED000034207D1D4F828C00023CFF6FE7303EBFA
:100EE0004C431A43E36A33B1D4F830C003F4787347
:100EF00043EA0C031A43D1F80CC044F20703CFF6BF
:100F0000F07303EA0C031A43CA600A69636B22F0A8
:100F100040621A430A618A68120744D494F8382060
:100F2000237F520042EA833CCB6844F2020223EA68
:100F3000020242EA0C02CA6022690B6982B143F4E0
:100F400080330B61D1F8C0C043F6FF732CEA030372
:100F50001A430DE042F010010120E16502B0B0BD7E
:100F600023F480320A61D1F8C02043F6FF739A431C
:100F7000C1F8C02094F840300A69012B10D140F22A
:100F8000FD7322EA030CD4E91132D4E913E543EAF4
:100F90000C031A4342EA0E022A4342F0010201E026
:100FA00022F001020A6162690B6B012A23F00F0231
:100FB00002D1236A013B1A430A63E16D012262F305
:100FC0000101E16502B0B0BD10B598B00446002043
:100FD000CDE9160002A804304021FFF763FB20682A
:100FE00040F20011C5F20001884201D018B010BDD6
:100FF0004FF000504FF40044119002A8029400F00A
:10100000E1FB002818BFFFF781FC41F24C00C4F25D
:101010000200016841F400510160016801F40051CF
:1010200001910199016841F002010160006813A972
:1010300000F0020001900198032014900020159008
:1010400040F20040C4F60000139400F08FF818B08E
:1010500010BD0000014690F82500022828D180B577
:101060000868D1E910CE8A6C036823F00E03036090
:10107000136823F480731360026822F00102026097
:101080000EF01F00012202FA00F0CCF80400D1E9B2
:1010900013205060486D30B1026822F48072026003
:1010A000D1E9160242600020BDE8804003E000BFA5
:1010B0000420C8630120012281F82520002281F844
:1010C0002420704790F82510022931D180B501689D
:1010D000D0E910CE826C0B6823F00E030B600B6816
:1010E00023F001030B60116821F4807111600EF090
:1010F0001F02012101FA02F2CCF80420D0E91332D8
:101100005A60426D32B1136823F480731360D0E9E2
:101110001623536080F82510826B002180F824107C
:101120000AB190470021BDE880400846704700BFE3
:101130000421C1630121002280F8251080F82420B9
:1011400008467047B0B5044600F0ECF8054640F29A
:101150000000C2F200004068611C18BF044400BFD8
:1011600000F0E0F8401BA042FAD3B0BD2DE9F04FEB
:1011700082B00D68002D00F0C58000F1384786056B
:1011800046EA972741F20046C4F60006062240F2DE
:10119000004EB04208BF0522C4F2010E052F38BF31
:1011A0003A464FF0000C012400270026009209E087
:1011B0000D68013635FA06F207F102070CF1040C4E
:1011C00000F0A08004FA06FB15EA0B08F0D0D1F875
:1011D00004A003230AF003056A1EBB40012A6FEA3C
:1011E00003090FD88268CB6802EA0902BB401A43A0
:1011F00082604268CAF3001322EA0B02B3401A432A
:10120000426003E0032D01D103251FE0C2688B6813
:1012100002EA0902BB401A43022DC26016D16FF0E8
:10122000030202EA560202440CF01C050F23D2F816
:1012300020A003FA05FB0B692AEA0B0AAB4043EA3C
:101240000A031362D1F804A00AF00305026805FA44
:1012500007F302EA09021A431AF4403F0260A7D0DA
:1012600041F26003C4F202031A684FF6084A42F0E2
:1012700001021A601A68CFF6FF7A02F001020192A9
:10128000019A26F00302724452F80A900CF00C0501
:101290000F23009CAB4029EA030304FA05F52B4316
:1012A00042F80A30DEF808204B6842EA080540F2AE
:1012B0000C49DC0258BF22EA0805CEF80850C4F2F7
:1012C0000109D9F800209D0242EA080458BF22EA29
:1012D0000804C9F80040DEF804209D0342EA08042F
:1012E00058BF22EA0804CEF80440DEF80020DB03F1
:1012F00042EA080458BF22EA0804CEF8004001245C
:1013000056E700BF02B0BDE8F08F0000006908405A
:1013100018BF0120704700001823002A08BF2823A7
:10132000C150704741F26040C2F20000006870474F
:1013300090F84120202A03D190F84020012A01D1C1
:1013400002207047242280F841200268136823F0AD
:1013500001031360136823F4805313601368194367
:101360001160116841F001011160202180F84110E5
:10137000002180F8401008467047000090F8412096
:10138000202A03D190F84020012A01D10220704781
:10139000242280F841200268136823F001031360BF
:1013A000136823F4706343EA01211160116841F06E
:1013B00001011160202180F84110002180F84010C7
:1013C00008467047002804BF0120704710B5044646
:1013D00090F8410028B9002084F84000204600F031
:1013E00049F8242084F8410094E80910E268016873
:1013F000012A21F00101016023F07061016181681F
:1014000021F40041816003D14CF40041816009E086
:101410004CF40441022A816004D1416841F4006126
:1014200003E000BF416821F400614160416804F1BC
:10143000100C41F0007141F400414160C16821F499
:101440000041C1609CE80E10114341EA0321C160D4
:10145000216A41EA0C010160016841F0010101606B
:1014600000202021606484F84110206384F8420049
:1014700010BD00002DE9F04198B0044602A80430E8
:1014800040214025FFF70EF9206845F20041C4F2E3
:101490000001884202D018B0BDE8F08102A8029590
:1014A00000F090F9002818BFFFF730FA41F24C0520
:1014B000C4F20205286813AC40F0010028602868D7
:1014C0004FF0120800F001001390139828680027CD
:1014D00040F0020028602868042600F00200139003
:1014E00013984FF4004013904FF090402146CDF8F0
:1014F0005080CDE915771796FFF738FE8020CDE9AB
:10150000130840F20040C4F600002146CDE91577EB
:101510001796FFF72BFEE86840F40010E860E868D3
:1015200000F400100190019818B0BDE8F0810000AF
:1015300040F2000041F26041C2F20000C2F200013C
:1015400040680A68104408607047000080B50320B6
:1015500000F08AF80F2000F009F800281CBF0120D5
:1015600080BD00F029F8002080BD000070B540F279
:101570000006C2F200067168E1B1044641F2D810DB
:10158000C2F200004FF47A720068B2FBF1F1B0FBD6
:10159000F1F000F0ABFE0F2C4FF0010508D838B980
:1015A0004FF0FF3021460022002500F031F8346072
:1015B000284670BD012070BD82B041F25800C4F2CF
:1015C0000200816841F001018160816801F0010140
:1015D00001910199016841F080510160006800F0BB
:1015E00080500090009802B000F0E2B8002848BF98
:1015F000704700F01F01012202FA01F11C2202EAE9
:10160000D0004EF20012CEF200028150704700006E
:1016100010B54EF60C5CCEF2000CDCF80030C3F3D3
:10162000022E8EF00704042C28BF0424BEF103030D
:101630004FF0FF3E0EFA04F438BF0023A143994057
:101640000EFA03F39A43114300F00F0200F16043D6
:101650000901043A03F564436244002848BF02F1DB
:101660000C03197010BD00004EF60C51CEF20001B3
:101670000A684FF6FF031A4060F30A2242F08060C6
:1016800040F0FD7008607047B0F5007F42D0002840
:1016900040F0808047F21400C4F2000050F8141C9F
:1016A000C26E01F4C06122F48072B1F5806FC2662F
:1016B0002ED150F8141C012262F34A2140F8141C68
:1016C00041F2D811C2F200010968322251434DF6AD
:1016D0008362C4F21B32A1FB0212910C0268520514
:1016E00011D54A1C0FD0026852050CD559B10268B9
:1016F000520508D5012906D00268520503D50229F2
:10170000A1F10401EAD10068400544BF03207047FD
:101710000020704747F21400C4F2000050F8141C77
:10172000C26E01F4C06142F48072B1F5806FC2668E
:10173000EED150F8141C012262F34A2140F8141C27
:1017400041F2D811C2F200010968322251434DF62C
:101750008362C4F21B32A1FB0212910C0268520593
:1017600011D54A1C0FD0026852050CD559B1026838
:10177000520508D5012906D00268520503D5022971
:10178000A1F10401EAD10068400544BF032070477D
:10179000BEE700BF47F21400C4F2000050F8141C6A
:1017A000022262F34A2140F8141C00207047000016
:1017B00047F20800C4F20000016841F48041016072
:1017C000704700002DE9F04182B00446807841F274
:1017D00088060007C4F2020602D400202FE000BFF2
:1017E00056F8300C5FEAC0080BD456F8300C40F0C5
:1017F000805046F8300C56F8300C00F080500190C4
:10180000019847F20007C4F20007386840F480707E
:101810003860FFF787FD05463868C00500F1D680BF
:10182000FFF780FD401B0228F6D90320B8F1000F16
:1018300005D456F8301C21F0805146F8301C216840
:10184000CA0713D18A0719D44A071FD40A0725D417
:101850008A062BD44A0631D40A0637D4CA053DD4A9
:101860008A0543D44A0549D457E000BF326863680B
:1018700022F003021A4332608A07E5D53268A36872
:1018800022F00C021A4332604A07DFD53268E3685F
:1018900022F030021A4332600A07D9D53268236930
:1018A00022F0C0021A4332608A06D3D532686369D7
:1018B00022F440621A4332604A06CDD53268A369E9
:1018C00022F440521A4332600A06C7D53268E369EF
:1018D00022F440421A433260CA05C1D53268236AF5
:1018E00022F440321A4332608A05BBD53268636AFB
:1018F00022F440221A4332604A050ED53268A36AA8
:1019000022F440121A43B3F5801F326005D156F815
:101910007C2C42F4801246F87C2C0A050ED53268E5
:10192000E36A22F440021A43B3F5800F326005D116
:1019300056F87C2C42F4801246F87C2CCA040ED552
:101940003268236B22F040721A43B3F1807F326019
:1019500005D156F87C2C42F4801246F87C2C8A047F
:101960000ED53268636B22F040621A43B3F1006F08
:10197000326005D156F87C2C42F4801246F87C2C5B
:101980004A040ED53268A36B22F040621A43B3F1C9
:10199000006F326005D156F87C2C42F4801246F874
:1019A0007C2C09040ED53168E26B21F040511143C3
:1019B000B2F1805F316005D156F87C1C41F4803172
:1019C00046F87C1C02B0BDE8F08100BFB06810F49E
:1019D000407010D0216C88420BD0B068B16820F400
:1019E000407041F48031B160B16821F48031B16060
:1019F000B060C0070CD1B068216C20F4407008437F
:101A0000B0600020B8F1000F3FF519AF11E700BF3B
:101A1000FFF788FC054641F2883700BFB0688007B1
:101A2000E9D4FFF77FFC401BB842F7D9FDE6000080
:101A30002DE9F047002865D042F2000AC4F2020AFC
:101A40000446DAF800000D4600F00F0088420CD280
:101A5000DAF8000020F00F002843CAF80000DAF896
:101A6000000000F00F00A8424CD1216841F20808A4
:101A7000C807C4F2020803D1880740F1D480B9E056
:101A8000606802283AD0032840D158F8082C920107
:101A900038D5D8F80420D8F8043042F20046C3F311
:101AA000031302F00302D8F804700133C0F2F40605
:101AB000032A04BF43F20066C0F26E16B6FBF3F2CF
:101AC000D8F80430C7F306277A43C3F341630227EB
:101AD00007EB4303B2FBF3F24BF20043C0F2C44303
:101AE0009A425DD9D8F8002012F0F00F4DD0890746
:101AF00056D5A168002953D147E000BF58F8081C0B
:101B0000890307D40120BDE8F08700BF58F8081CFE
:101B10004905F7D5D8F8001001F00C0104293FD091
:101B2000D8F8001001F00C01082939D0D8F80010BD
:101B300001F00C010C2933D1D8F80410D8F8042096
:101B400042F20047C2F3031201F00301D8F8043057
:101B50000132C0F2F407032904BF43F20067C0F268
:101B60006E17B7FBF2F1D8F80420C3F306235943EC
:101B7000C2F34162022303EB4202B1FBF2F14BF2EA
:101B80000042C0F2C44291420AD9D8F8001008229B
:101B900062F307114FF00109C8F8001002E000BF1E
:101BA0004FF00009D8F8001021F003010843C8F8ED
:101BB0000000FFF7B7FB064641F28837D8F800006F
:101BC000616800F00C00B0EB810F07D0FFF7AAFBB3
:101BD000801BB842F2D90320BDE8F087216888074E
:101BE00008D4B9F1000F1ED0D8F8000020F0F000A2
:101BF00017E000BF480705D5D8F8000040F4E060C2
:101C0000C8F80000080706D5D8F80000072262F3DC
:101C10000D20C8F80000D8F80000A26820F0F000FD
:101C20001043C8F80000DAF8000000F00F00A842E6
:101C30001BD9DAF8000020F00F002843CAF8000092
:101C4000FFF770FB064641F2883700BFDAF8000064
:101C500000F00F00A84207D0FFF764FB801BB842DA
:101C6000F4D90320BDE8F0872168480707D5D8F8E4
:101C70000000E26820F4E0601043C8F800000807A4
:101C800008D5D8F80000216920F4605040EAC1006E
:101C9000C8F80000D8F8000042F20041C0F2F40198
:101CA00000F00C00042808462DD0D8F8000000F001
:101CB0000C00082843F20060C0F26E1023D0D8F860
:101CC000002002F00C020C2A1CD1D8F80420D8F80D
:101CD000043002F00302C3F30313D8F80470013395
:101CE000032A08BF0146B1FBF3F0D8F80410C7F38C
:101CF0000627C1F341610222784302EB4101B0FBA8
:101D0000F1F000E00020D8F8001044F65302C1F3CF
:101D10000311C0F60002515C41F2D81201F01F011C
:101D200020FA01F140F20000C2F200000068C2F2A5
:101D300000021160BDE8F047FFF718BC41F2D8106F
:101D400041F20801C2F20000C4F202010068096811
:101D500044F66302C1F30221C0F60002515C01F0B7
:101D60001F01C8407047000041F2D81041F208013D
:101D7000C2F20000C4F202010068096844F663027E
:101D8000C1F3C221C0F60002515C01F01F01C8403E
:101D90007047000041F20C01C4F2020151F8040C3A
:101DA00042F20042C0F2F40200F00C000428104697
:101DB00008BF704751F8040C00F00C00082843F2EB
:101DC0000060C0F26E1025D051F8043C03F00C0303
:101DD0000C2B1CBF0020704780B5D1F800C00B68E9
:101DE0000CF0030CC3F3031E0B680EF1010EBCF1E3
:101DF000030F08BF02460968B2FBFEF0C3F30623D7
:101E0000C1F341610222584302EB4101B0FBF1F002
:101E1000BDE8804070470000002804BF01207047E3
:101E20002DE9F04182B00446007841F20006C00777
:101E3000C4F202061ED1207880073DD42078000726
:101E400064D42078400700F187802078800600F174
:101E5000D980E569002D00F04482B06800F00C00E4
:101E60000C2840F03181012D40F09081012002B01A
:101E7000BDE8F081B06800F00C01F068082961D07D
:101E8000032281F00C0122EA00000844B0FA80F03D
:101E9000400957D16068B0F5803F07D0B0F5A02F5A
:101EA00040F0E480306840F480203060306840F4D6
:101EB00080303060E5E000BFB068F16800F00C00F1
:101EC000042871D001F0030180F00C0081F00201C0
:101ED0000844B0FA80F0400966D1E1683068002912
:101EE00000F0E08040F480703060FFF71BFA054698
:101EF0003068400500F10A81FFF714FA401B022800
:101F0000F6D9032002B0BDE8F08100BF6169D6F8C0
:101F10009400002900F0948040F00100C6F894007D
:101F2000FFF700FA054600BFD6F8940080073FF59A
:101F300088AFFFF7F7F9401B0228F5D9032002B05C
:101F4000BDE8F081306880037FF575AF60680028D8
:101F50007FF471AF3EE000BFB06D5FEAC00808D407
:101F6000B06D40F08050B065B06D00F080500190D1
:101F7000019847F20007C4F200073868C0052DD465
:101F8000386840F480703860FFF7CCF9054600BF30
:101F90003868C00522D4FFF7C5F9401B0228F7D9DD
:101FA000032002B0BDE8F0813068400501D5E0684B
:101FB00080B17068216920F0FE4040EA01607060E5
:101FC00040F20000C2F200000068FFF7CFFA0028DC
:101FD0003FF434AF012002B0BDE8F081A0680128D1
:101FE00008D0052840F0B080D6F8900040F00400FA
:101FF000C6F89000D6F8900040F00100C6F89000B6
:10200000B0E000BFA169D6F89800002900F08680F2
:1020100040F00100C6F89800FFF784F9054600BFBC
:10202000D6F8980080073FF514AFFFF77BF9401B07
:1020300002284FF00300F3D902B0BDE8F08100BFE1
:1020400020F00100C6F89400FFF76CF9054600BFC8
:10205000D6F8940080077FF5F4AEFFF763F9401BD4
:102060000228F5D9032002B0BDE8F08131680028CC
:1020700021F480313160316821F48021316000F039
:10208000BF80FFF74FF90546306880033FF5D3AEB8
:10209000FFF748F9401B6428F6D9032002B0BDE8D9
:1020A000F08100BF20F480703060FFF73BF90546F7
:1020B000306840057FF5C2AEFFF734F9401B0228B7
:1020C0004FF00300F4D9B7E7306820F0807030603B
:1020D000FFF728F9022D05460CD100BF30688001BA
:1020E00040F1BA80FFF71EF9401B02284FF00300B1
:1020F000F4D9A1E73068800140F1EC80FFF712F9D4
:10210000401B02284FF00300F4D995E7706821695D
:1021100020F0FE4040EA016070608FE620F0010090
:10212000C6F89800FFF7FEF8054600BFD6F89800FD
:1021300080077FF58EAEFFF7F5F8401B02284FF0C1
:102140000300F3D978E700BFD6F89010002821F0FB
:102150000101C6F89010D6F8901021F00401C6F8DD
:1021600090105DD0FFF7DEF8054641F2883700BFDA
:10217000D6F89000800765D4FFF7D4F8401BB8422A
:10218000F6D9032002B0BDE8F08100BFF068216AF3
:1021900000F003028A427FF41DAF626A6FF00F0302
:1021A00000F0F00103EB021291427FF413AFA16A39
:1021B00000F4FE42B2EB012F7FF40CAFE16A00F0B5
:1021C0007842B2EBC16F7FF405AF226B0023CFF6EC
:1021D000E07303EA025200F4C001A2F5001291423A
:1021E0007FF4F8AE616B4FF07E4202EA016100F0CD
:1021F000C06001F17E4188427FF4ECAE71E000BF27
:10220000FFF790F8054600BF306880037FF513AEF6
:10221000FFF788F8401B64284FF00300F4D90BE760
:10222000FFF780F8054641F2883700BFD6F89000E6
:10223000800707D5FFF776F8401BB8424FF0030040
:10224000F4D9F9E6B8F1000F3FF5FFADB06D20F01D
:102250008050B065F9E500BFF06848F20C01C0F2AB
:102260009F1104F1200700EA010C8ECF6FF00F00E0
:10227000D4E90C5400EB02100022CFF6E07241EAE0
:102280000C0102EA05520843A2F500124FF07E4508
:1022900040EA032005EA0465104305F17E4540EA63
:1022A000C7602843F060306840F080703060F068AC
:1022B00040F08070F060FFF735F804463068800128
:1022C0000FD4FFF72FF8001B02284FF00300F5D9B9
:1022D000B2E600BFF0684FF6FC71CFF6EE61084041
:1022E000F060002002B0BDE8F0810000411E002037
:1022F000B0EB116F1CBF012070474EF21002CEF2FE
:10230000000251604EF62351CEF20001F0230B7013
:10231000072190601160704790F83C20012A04BFAB
:1023200002207047B0B5D1E90232D1E900CE22F4E3
:102330007C5223F4705343EA020448F2FF73CEF652
:10234000F0730EEA0302224303F5006404EA0C046E
:1023500042EA040C0C6903F5C05222404C6942EA7F
:102360000C02224303F5605422400C6B03F5F0434A
:1023700023401A438B6940F2000CCC69CEF6FF7CF7
:102380000CEA03431443D0F800C043F20042C4F205
:102390000102944543EA040305D042F60042C4F228
:1023A0000102944516D14FF6FF72CDF60F421A4046
:1023B000D1E9083ED1E90A410025CDF6F04505EA0C
:1023C0000454224323F008531A432EF000531A43B7
:1023D00042EA01030021CCF8443080F83C10BDE80B
:1023E000B04008467047000090F83C20012A4FF0AA
:1023F00002024AD070B580F83D20026843F2004CDA
:1024000054689368C4F2010C42F6004E6245C4F26F
:10241000010E01D0724503D14D6824F470042C43A1
:102420004FF68F75CFF6FF550E682C4042F6FF35FC
:10243000C4F201053443AA4254600FDCB2F1804F6C
:1024400016D040F20046C4F20006B24210D040F668
:102450000006C4F20006B2420AD00EE0724507D070
:1024600044F20006C4F20106B24201D0624504D132
:10247000896823F08003194391600121002280F8CC
:102480003D1080F83C20BDE87040104670470000C9
:1024900090F83C30012B04BF022070474FEAB20293
:1024A000052A00F293812DE9F041DFE812F00700E0
:1024B0005500A900FD005101950100BF03681D6A88
:1024C0001A6AA3F1804622F001021A621A46A6F5A2
:1024D00096369F05D3F804C052F818EF47EA9626BF
:1024E0008F68D1F8008025F00205072E45EA070520
:1024F0000AD80127B74017F0E50F1FBFCF6825F0B6
:102500000C0527F004073D43072E0CD8012707FAD6
:1025100006F616F0E50F1FBFD1E905672CF44074ED
:10252000264346EA070C4FF68C74CFF6FE740EEA8B
:10253000040747EA0807C3F804C09F614F680969A8
:102540005F631D629F6947F008079F619F6927F0DD
:1025500004079F617EE100BF036843F200461D6AE5
:102560001A6AC4F2010622F010021A621A46D3F85F
:1025700004C052F8188FB3428E68D1F800E025F0FD
:10258000200545EA061505D042F60046C4F20106CC
:10259000B34207D1CE686FF0400725F0C00507EAC7
:1025A00006163543A3F18046A6F596369F0547EA01
:1025B0009626072E0CD8012707FA06F616F0E50F27
:1025C0001FBFD1E905672CF44064374344EA870C08
:1025D00048F6FF44CFF6FF6404EA080444EA0E27F5
:1025E000C3F804C09F614F6809699F631D629F69BA
:1025F00047F400679F619F6927F480679F6128E126
:10260000036843F200461D6A1A6AC4F2010622F406
:1026100080721A621A46D3F804C052F81C8FB34273
:102620008E68D1F800E025F4007545EA062505D04E
:1026300042F60046C4F20106B34207D1CE6840F22A
:10264000FF47360225F44065BE433543A3F180467B
:10265000A6F596369F0547EA9626072E0CD8012741
:1026600007FA06F616F0E50F1FBFD1E905672CF44F
:102670004054374344EA071C4FF68C74CFF6FE747F
:1026800004EA080444EA0E07C3F804C0DF614F6897
:102690000969DF631D62DF6947F00807DF61DF69F1
:1026A00027F00407DF61D5E0036843F200461D6AA6
:1026B0001A6AC4F2010622F480521A621A46D3F84A
:1026C00004C052F81C8FB3428E68D1F800E025F4A4
:1026D000005545EA063505D042F60046C4F201062B
:1026E000B34207D1CE6844F6FF77360325F4404560
:1026F000BE433543A3F18046A6F596369F0547EACB
:102700009626072E0CD8012707FA06F616F0E50FD5
:102710001FBFD1E905672CF44044374344EA871CC6
:1027200048F6FF44CFF6FF6404EA080444EA0E27A3
:10273000C3F804C0DF614F6809691F641D62DF6967
:1027400047F40067DF61DF6927F48067DF6180E0BD
:102750000368D3F820C01A6AA3F1804722F48032BC
:102760001A621A46A7F596379C055D6852F8508F95
:10277000D1F800E08E6844EA9727072F09D8012492
:10278000BC4014F0E50F1EBF4C6925F4803545EAC6
:1027900004252CF4003747EA06474FF68C76CFF62F
:1027A000FE76033606EA080646EA0E065D601E65FA
:1027B0004E6809699E641F621F6D47F008071F6518
:1027C0001F6D27F004071F6544E000BF01210022B0
:1027D00080F83C20084670470368D3F820C01A6A86
:1027E000A3F1804722F480121A621A46A7F59637A1
:1027F0009C055D6852F8508FD1F800E08E6844EA7D
:102800009727072F09D80124BC4014F0E50F1EBFFD
:102810004C6925F4802545EA84252CF4001747EA05
:10282000065748F6FF46CFF6FF6606F5407606EAFD
:10283000080646EA0E265D601E654E680969DE647C
:102840001F621F6D47F400671F651F6D27F48067C7
:102850001F6509021368194311600021BDE8F041AA
:10286000002280F83C20084670470000002804BF82
:102870000120704710B5044690F83D0028B90020AB
:1028800084F83C00204600F023F8022084F83D0044
:102890002068211D01F060F8012084F8480084F8C8
:1028A0003E0084F83F0084F8400084F8410084F83A
:1028B000420084F8430084F8440084F8450084F81A
:1028C000460084F8470084F83D00002010BD000059
:1028D00082B0006840F20041C4F20001884215D085
:1028E00042F60041C4F2010188421CD141F2580075
:1028F000C4F20200816841F400618160806800F4E4
:1029000000600190019802B0704700BF41F258008A
:10291000C4F20200016841F002010160006800F0A9
:1029200002000090009802B07047000090F88410F8
:10293000012904BF022070472421C0F888100268D2
:102940001168136823F00103136021F00053002184
:10295000416613602022C0F8882080F88410084661
:1029600070470000704700007047000090F8842016
:10297000012A04BF02207047B0B52422C0F8882085
:102980000268D0F864E0D2F800C01368BEF1000F0E
:1029900023F001031360936823F0606341EA0301AD
:1029A000916019D09368916844F6940E490FC0F66F
:1029B000000E44F69C051EF80140C0F60005695C57
:1029C000C3F34263E400B4FBF1F11EF80340EB5C97
:1029D000E500B5FBF3F301E001210123A0F86A1043
:1029E0002021A0F86830C2F800C0C0F8881000218B
:1029F00080F88410BDE8B0400846704790F8842005
:102A0000012A04BF02207047B0B52422C0F88820F4
:102A10000268D0F864E0D2F800C01368BEF1000F7D
:102A200023F001031360936823F0604341EA03013C
:102A3000916019D09368916844F6940E490FC0F6DE
:102A4000000E44F69C051EF80140C0F60005695CC6
:102A5000C3F34263E400B4FBF1F11EF80340EB5C06
:102A6000E500B5FBF3F301E001210123A0F86A10B2
:102A70002021A0F86830C2F800C0C0F888100021FA
:102A800080F88410BDE8B0400846704770470000E9
:102A9000704700007047000070B5016840F62F03D2
:102AA000CA69044608688E681340202B0CD100F0D8
:102AB000200306F080555B1917D0616F69B320467B
:102AC000BDE87040084700BF40F60F031A420CD023
:102AD0000123C1F2000306EA030C40F22013C0F206
:102AE0000043034013EB0C0328D1E36ED50615D544
:102AF000012B13D110F0100310D010200862886849
:102B0000400627D4B4F85C00B4F85E10B4F85E2038
:102B1000002A18BF884240F03F8270BDD30240F1C6
:102B2000D58016F4800300F0D1804FF48012204647
:102B30000A62BDE87040FFF7ABBF00BFD30718BF04
:102B400010F4807340F00C81930706F0010E00F141
:102B500013811CE1D4F88000006841688AB2002A21
:102B6000DBD0B4F85C309A42D7D2A4F85E1000688B
:102B7000800600F19E80206850E8000F216820F454
:102B8000807041E80002DAB1206850E8000F216847
:102B900020F4807041E8000292B1206850E8000FF4
:102BA000216820F4807041E800024AB1206850E8B2
:102BB000000F216820F4807041E80002002ADAD179
:102BC000206850E8020F216820F0010041E802026D
:102BD000BAB3206850E8020F216820F0010041E8F4
:102BE000020272B3206850E8020F216820F0010051
:102BF00041E802022AB3206850E8020F216820F061
:102C0000010041E80202002ADAD11AE0206850E807
:102C1000020F216820F0400041E80202DAB120688A
:102C200050E8020F216820F0400041E8020292B112
:102C3000206850E8020F216820F0400041E80202BD
:102C40004AB1206850E8020F216820F0400041E8B6
:102C50000202002ADAD12020C4F88C000020E066AD
:102C6000206850E8000F216820F0100041E80002C1
:102C7000DAB1206850E8000F216820F0100041E828
:102C8000000292B1206850E8000F216820F0100087
:102C900041E800024AB1206850E8000F216820F0A6
:102CA000100041E80002002ADAD1D4F88000FEF7D3
:102CB000D1F902202067B4F85C00B4F85E10401A25
:102CC00081B22046BDE87040FFF74CBE110606D524
:102CD00000F0800106F40003C91840F0DF815106BE
:102CE00032D510F040012FD0206850E8000F216845
:102CF00020F0400041E80002DAB1206850E8000FFF
:102D0000216820F0400041E8000292B1206850E8BC
:102D1000000F216820F0400041E800024AB120681D
:102D200050E8000F216820F0400041E80002002A2E
:102D3000DAD120200021C4F888002046A167BDE830
:102D4000704000F075BB00BF110240F1B38110F07C
:102D5000804100F0AF812046BDE87040FFF796BE8D
:102D600001230B62D4F8903043F00103C4F8903093
:102D7000930706F0010E0AD5BEF1000F07D002231B
:102D80000B62D4F8903043F00403C4F8903053073A
:102D90000AD5BEF1000F07D004230B62D4F890309F
:102DA00043F00203C4F8903013070CD500F0200361
:102DB00053EA0C0307D008230B62D4F8903043F099
:102DC0000803C4F8903013050BD510F0806308D0C9
:102DD0004FF400630B62D4F8903043F02003C4F842
:102DE0009030D4F89030002B3FF497AE92060AD57D
:102DF00000F0200006F08052801804D0626F12B1FB
:102E0000204690472168D4F89000896800F0280097
:102E100001F04001401807D12046FFF73BFE00209B
:102E2000C4F8900070BD00BF206850E8000F216812
:102E300020F4907041E80002DAB1206850E8000FF9
:102E4000216820F4907041E8000292B1206850E8B7
:102E5000000F216820F4907041E800024AB1206818
:102E600050E8000F216820F4907041E80002002A29
:102E7000DAD14FF6FE70CEF6FF7000BF216851E840
:102E8000021F2268014042E80213C3B1216851E8E1
:102E9000021F2268014042E8021383B1216851E811
:102EA000021F2268014042E8021343B1216851E841
:102EB000021F2268014042E80213002BDED1E06EBF
:102EC000012824D1206850E8000F216820F010006C
:102ED00041E80002DAB1206850E8000F216820F0D4
:102EE000100041E8000292B1206850E8000F21680C
:102EF00020F0100041E800024AB1206850E8000FBD
:102F0000216820F0100041E80002002ADAD12020D8
:102F1000C4F88C000020E06621686067886840067D
:102F200040F1C280206850E8020F216820F0400084
:102F300041E80202DAB1206850E8020F216820F06F
:102F4000400041E8020292B1206850E8020F216877
:102F500020F0400041E802024AB1206850E8020F28
:102F6000216820F0400041E80202002ADAD1D4F8BA
:102F70008000002800F0988043F6D941C0F6000197
:102F80008163FEF79FF800283FF4C7ADD4F88000B6
:102F9000816BBDE870400847401A00BF216851E8C6
:102FA000001F226821F4907142E80013DBB1216810
:102FB00051E8001F226821F4907142E8001393B198
:102FC000216851E8001F226821F4907142E8001343
:102FD0004BB1216851E8001F226821F4907142E84A
:102FE0000013002BDAD14FF6FE71CEF6FF7100BF51
:102FF000226852E8022F23680A4043E80226C6B13D
:10300000226852E8022F23680A4043E8022686B16C
:10301000226852E8022F23680A4043E8022646B19C
:10302000226852E8022F23680A4043E80226002E55
:10303000DED12021C4F88C100021E166616700BF59
:10304000216851E8001F226821F0100142E80013B6
:10305000DBB1216851E8001F226821F0100142E82D
:10306000001393B1216851E8001F226821F010017C
:1030700042E800134BB1216851E8001F226821F09B
:10308000100142E80013002BDAD1022281B220465F
:103090002267BDE87040FFF765BC00BFA16F002943
:1030A0007FF40DAD39E500BF2046BDE87040FFF765
:1030B000F1BC00BFD1017FF530ADB0F1FF3FC8BF1B
:1030C00070BD2046BDE87040FFF74EBC10B5D0B1D2
:1030D0000446D0F8880028B9002084F884002046EF
:1030E00000F026F82420C4F888002068A16A02684D
:1030F00022F00102026011B1204600F0BFFC204620
:1031000000F0F2FD10B1012010BD00BF2168486839
:1031100020F490404860886820F02A0088600868A1
:1031200040F0010220460A60BDE8104000F01CBDDE
:1031300010B596B00446684608303C21FDF7B2FA57
:10314000206843F60001C4F20101884202D016B0A3
:1031500010BD00BF01200090002468460194FEF7D6
:1031600031FB002818BFFDF7D1FB41F24C00C4F23F
:103170000200416941F480414161416901F48041AB
:1031800011911199016841F001010160006811A9D4
:1031900000F00100119011984FF4C06011900220CE
:1031A000CDE91204072015904FF090401494FDF7DC
:1031B000DDFF252000210022FEF72AFA2520FEF758
:1031C00015FA16B010BD00002DE9F04381B0044699
:1031D000D0F88C00202827D10E4600294FF001009E
:1031E00058D01746002A55D0002022211D46C4F889
:1031F0009000C4F88C10E066FEF794F8A4F85C70B8
:10320000A4F85E70A168804691B1B1F1805F13D0DF
:10321000B1F5805F14D1206960B940F2FF17A4F8BE
:103220006070B14600261CE0022001B0BDE8F083CA
:10323000206938B9FF2706E0206918B13F2702E06E
:10324000002700E07F274FF00009A4F8607008E035
:10325000384029F8020B0026B4F85E000138A4F8C3
:103260005E00B4F85E0078B120462021002243467B
:10327000009500F085FE48B92068002E406AE7D02E
:10328000384006F8010BE7E7002000E0032020218A
:10329000C4F88C1001B0BDE8F08300002DE9F041C6
:1032A0000446D0F8880020281CBF0220BDE8F08129
:1032B0000D4600294FF0010000F0B8801646002AA4
:1032C00008BFBDE8F0810020C4F890002120984696
:1032D000C4F88800FEF726F8A4F85460A4F85660F5
:1032E000A1680646B1F5805F02D1206900286BD045
:1032F0002F460025B4F8560000286BD018F10100C5
:103300001CD0B8F1000F3DD121680BE017F8010B7C
:103310008862B4F856000138A4F85600B4F8560094
:10332000002858D0C869000640F17A80002FEDD1FE
:1033300035F8020B00276FF35F20E9E7216802E010
:10334000C869000609D4C869000606D4C869000621
:103350005CBFC8695FEA0060F2D51FB117F8010BC6
:1033600005E000BF35F8020B00276FF35F2088628D
:10337000B4F856000138A4F85600B4F856000028F6
:10338000E1D128E0216800BFC869000608D4FDF734
:10339000C9FF801B404545D821680868F4E700BF95
:1033A00017B117F8010B04E035F8020B00276FF393
:1033B0005F208862B4F856000138A4F85600B4F8CB
:1033C00056000028E0D106E00027B4F85600002897
:1033D0007FF494AF2168C86940061FD4B8F1000F8C
:1033E0001ED018F101000FD1C869400616D4C86973
:1033F000400613D4C869400610D4C86940064FF08F
:103400000000F1D50FE000BFFDF78CFF801B4045A9
:1034100008D820680168C0694006F5D5002002E0A0
:10342000FDF780FF03202021C4F88810BDE8F0815B
:1034300070470000FEE70000B0B588B041F274208C
:1034400040F20011C2F20000C5F2000100244FF466
:103450004032042580E816000121CDE90644C0E988
:103460000344C0E905458483016280F82440C0E933
:103470000B4480F83840C46380F84040FDF784FC7A
:10348000002818BFFDF742FA48F20000C3F6F060CA
:1034900000900620CDE901047F20CDE9030541F22B
:1034A0007420C2F2000069460594FDF79FFA0028D7
:1034B00018BFFDF72BFA41F27420C2F200007F2101
:1034C000FDF72AFA08B0B0BD2DE9F04F87B000240F
:1034D00041F24C000694C4F20200016840F2004838
:1034E00041F0040101600168C4F6000801F0040124
:1034F00001910199016808F5806741F020010160A0
:103500000168002201F020010191019901684FF644
:10351000FF7541F001010160016801F001010191B5
:103520000199016841F002010160016801F00201A6
:1035300001910199016841F00801016000684FF6AE
:10354000FF7100F00800019001983846FDF7E4FE95
:103550004FF090404FF4807100224FF48079FDF7D6
:10356000DBFE08F5006B5846042100224FF0040AE8
:10357000FDF7D2FE40464FF458710022FDF7CCFE15
:1035800002AE0295012538463146CDE90354059433
:10359000FDF7ECFD4FF090403146CDE90254049424
:1035A000FDF7E4FD0720CDE90204404631460494CE
:1035B000FDF7DCFD4FF090403146CDE90295CDE9B5
:1035C0000444FDF7D3FD58463146CDE902A5CDE9C7
:1035D0000444FDF7CBFD4FF45870CDE90205404699
:1035E0003146CDE90444FDF7C1FD07B0BDE8F08FD9
:1035F00080B541F2E02045F20041C2F20000C4F281
:1036000000014AF2FB720023C3F2A0024FF0010C4A
:1036100080E80E10C0E90433C0E906330362FDF709
:10362000D1FE002818BFFDF771F941F2E020C2F287
:1036300000000021FDF77CFE002818BFFDF766F9A9
:1036400041F2E020C2F200000021FDF797FE0028C1
:1036500008BF80BDBDE88040FDF758B9B0B59CB04B
:103660000024684634211394CDE91144CDE90F4478
:10367000CDE90D44FDF716F841F2343042F600452D
:10368000C2F20000C4F20105A92141F28732C0E96B
:103690000051C0E90242C0E904448461FFF7E6F842
:1036A000002818BFFDF732F941F23430C2F20000B1
:1036B00014A9CDE914441694FEF796FE002818BF0D
:1036C000FDF724F960200D904FF4FA700E9041F24E
:1036D00034300024C2F200000DA90022CDE90F44CD
:1036E000CDE911441394FEF7D3FE002818BFFDF76F
:1036F0000DF94FF40050CDE905044FF0007004942B
:10370000CDE90244CDE90044CDE90744CDE90904FF
:103710000B9441F234344FF48040C2F200040C9018
:1037200069462046FEF7F8FD002818BFFDF7EEF8C1
:10373000206840F20041C4F20001884212D0A84241
:103740002BD141F24C00C4F20200016841F00101AA
:1037500001600068802100F0010017901798062092
:103760000FE000BF41F24C00C4F20200016841F0DA
:10377000010101600068402100F0010017901798D6
:1037800002201791022118910021CDE919111B90F7
:1037900017A94FF09040FDF7E9FC1CB0B0BD000048
:1037A000B0B590B041F2803040F200450024C2F242
:1037B0000000C4F20005A92142F20F720994CDE97C
:1037C0000644CDE90444C0E90051C0E90242046165
:1037D0008461FFF74BF8002818BFFDF797F841F216
:1037E0008030C2F2000008A908940A94FEF7FCFD9C
:1037F000002818BFFDF78AF8602001904FF47A7016
:1038000041F2803402900020C2F20004039005903F
:1038100001A920460022FEF73BFE002818BFFDF755
:1038200075F82068A84215D042F60041C4F20101A3
:1038300088422AD141F24C00C4F20200016841F0F2
:10384000010101600068802100F001000B900B98DD
:1038500006200EE041F24C00C4F20200016841F083
:10386000010101600068402100F001000B900B98FD
:1038700002200B9102210C910021CDE90D110F9036
:103880000BA94FF09040FDF771FC10B0B0BD0000E7
:1038900080B541F2CC3043F60001C2F20000C4F220
:1038A00001014FF41652002380E80E0010214FF062
:1038B0000C0C81624FF48051C0E90333C0E905C3A9
:1038C000C361C0E90833C163FFF700FC002818BFDB
:1038D000FDF71CF841F2CC30C2F200000021FFF7E6
:1038E0008DF8002818BFFDF711F841F2CC30C2F274
:1038F00000000021FFF73AF8002818BFFDF706F88E
:1039000041F2CC30C2F20000FFF710F8002808BFE7
:1039100080BDBDE88040FCF7F9BF0000FEE7000075
:10392000FEE70000704700007047000080B5FDF71B
:10393000FFFD41F24120C2F2000001780131017027
:1039400080BD00004EF68850CEF20000016841F4C0
:10395000700101607047000040F2FF7C0268C4F211
:10396000000C604522DD40F60003C4F200039842DB
:1039700025D043F20043C4F2010398421FD042F61F
:103980000043C4F20103984219D043F2FF33C4F25A
:10399000010398421DDC60452ADCB0F1804F3DD028
:1039A00040F20043C4F2000336E000BFB0F1804FA4
:1039B00005D040F20043C4F200039842E5D14B68C1
:1039C00022F070021A4343F2FF33C4F2010398421B
:1039D000E1DD44F2FF33C4F20103984212DC43F20A
:1039E0000043C4F20103984218D044F2000311E0EE
:1039F00040F60003C4F2000398420FD042F60043A1
:103A000008E000BF44F60003C4F20103984205D069
:103A100044F20043C4F20103984203D1CB6822F47C
:103A200040721A4380B54B6922F0800E8A6843EADF
:103A30000E03D1F800C00360C262A0F18042A2F57B
:103A40009632830543EA9222072AC0F828C0BDE8CF
:103A5000804007D8012303FA02F212F0E50F1CBFE1
:103A600009690163012141610169C90708BF704704
:103A7000016921F00101016170470000816A0A07B4
:103A80000ED4CA0717D18A0720D44A0729D4CA06F8
:103A900032D48A063BD480B54A0644D458E000BFED
:103AA0000268D0F838C0536823F4004343EA0C039B
:103AB0005360CA07E7D00268D0F82CC0536823F4DB
:103AC000003343EA0C0353608A07DED50268D0F85E
:103AD00030C0536823F4803343EA0C0353604A0731
:103AE000D5D50268D0F834C0536823F4802343EA64
:103AF0000C035360CA06CCD50268D0F83CC093686A
:103B000023F4805343EA0C0393608A06C3D502680A
:103B1000D0F840C0936823F4005343EA0C03936049
:103B200080B54A0614D50268D0F844C05368BCF585
:103B3000801F23F4801343EA0C03536008D1D2F8AA
:103B400004C0D0F848E02CF4C00343EA0E035360ED
:103B5000090658BF80BD0168C06C4A6822F4002283
:103B60001043486080BD0000B0B582B0044600201C
:103B7000C4F89000FDF7D6FB216805460A681207D5
:103B800037D56FF07E4C20464FF4001100222B46B3
:103B9000CDF800C000F0F4F950B300BF206850E841
:103BA000000F216820F0800041E80002DAB12068AF
:103BB00050E8000F216820F0800041E8000292B137
:103BC000206850E8000F216820F0800041E80002E2
:103BD0004AB1206850E8000F216820F0800041E8D9
:103BE0000002002ADAD12020C4F8880060E000BF7B
:103BF00021680868400761D56FF07E4C20464FF47D
:103C0000800100222B46CDF800C000F0B9F9002851
:103C100054D000BF206850E8000F216820F4907055
:103C200041E80002E2B1206850E8000F216820F46A
:103C3000907041E800029AB1206850E8000F2168B6
:103C400020F4907041E8000252B1206850E8000F63
:103C5000216820F4907041E80002002ADAD100BF08
:103C6000206850E8020F216820F0010041E80202BC
:103C7000DAB1206850E8020F216820F0010041E825
:103C8000020292B1206850E8020F216820F0010082
:103C900041E802024AB1206850E8020F216820F092
:103CA000010041E80202002ADAD12020C4F88C0089
:103CB0000320002184F8841002B0B0BD2020C4F895
:103CC0008800C4F88C000020E0662067002184F89A
:103CD000841002B0B0BD0000806A0021A0F85E1020
:103CE000A0F85610FEF7D6BE70B5054605F10804DB
:103CF0001ECC0068194341EA0403EE69046846F6E5
:103D0000F311CCF6FF712140194331430160416842
:103D100048F2000C21F4405111434160AA69C4F2F9
:103D2000000C60451CBF296A0A4381684FF2FF43BB
:103D3000C1F2FF13194011438160C16AD5F824E034
:103D400021F00F0141EA0E01C16244F6FF31C4F2D5
:103D5000000188424FF0100314DD44F60041C4F224
:103D60000001884222D0604528D043F60001C4F209
:103D70000101884238D141F28801C4F202010B6886
:103D80007BA22DE044F20041C4F2000188421DD024
:103D900044F60001C4F20001884225D141F28801B5
:103DA000C4F2020109680B0916E000BF41F2880164
:103DB000C4F2020109688B090EE000BF41F28801DC
:103DC000C4F2020109688B0A06E000BF41F28801D3
:103DD000C4F2020109688B0844F68402C0F60002AE
:103DE00003F0030152F82130604542F20040C0F276
:103DF000F40015D0B6F5004F22D1082B4FF0010189
:103E000000F2AD80DFE803F0065C6AAB60ABABAB01
:103E1000680000BFFDF792FF002840F059809AE04B
:103E2000082B4FF0010100F29A80DFE803F00598BB
:103E300025981B9898982300FDF780FFB0B98AE079
:103E4000082B4FF0010100F28A80DFE803F00563E0
:103E50006F88678888886D00FDF770FF002860D143
:103E600079E000BFFDF796FF002874D0D5F824E074
:103E700002E000BF4FF4004044F66C01C0F60001C0
:103E800031F81E106A68B0FBF1F002EB4201884283
:103E90004FF0010163D31303984260D8010E000272
:103EA00010EB520041F100010023FCF747FA4FF6F6
:103EB0000052A0F54071C0F20F02914249D34DE08B
:103EC000FDF752FF20B946E0FDF764FF002842D01D
:103ED000D5F824E002E000BF4FF4004044F66C0146
:103EE000C0F6000131F81E106A68B0FBF1F051080D
:103EF00001EB4000B0FBF2F04FF6EF72A0F11001C1
:103F000091422BD84FF6F0710140C0F342000844B3
:103F10001FE000BFFDF728FF18B91CE0FDF73AFFCE
:103F2000C8B1D5F824E001E04FF4004044F66C013C
:103F3000C0F6000131F81E104FF6EF72B0FBF1F041
:103F4000696800EB5100B0FBF1F0A0F11001914263
:103F500004D82968C860002101E000BF01214FF0AA
:103F60000110A866002208466A67AA6770BD00BFF4
:103F70000100000004000000020000000800000032
:103F80002DE9F041804600681546C2690E46114091
:103F9000891BB1FA81F14909A94223D1069C2CB3AE
:103FA000611C29D1C1693140891BB1FA81F14909EC
:103FB000A94217D1C1693140891BB1FA81F1490980
:103FC000A9420FD1C1693140891BB1FA81F1490978
:103FD000A94207D1C1693140891BB1FA81F1490970
:103FE000A942DFD00020BDE8F08100BFFDF79AF9BB
:103FF0000320BDE8F08100BF1F4607E0C0693040E4
:10400000801BB0FA80F04009A842EBD1FDF78AF995
:10401000C01BA04200F2AE80D8F80000016849073A
:10402000ECD5402EEAD0802EE8D0C169090700F116
:10403000A580C1690905E1D54FF400610162D8F896
:10404000000050E8000FD8F8001020F4907041E80C
:1040500000020AB3D8F8000050E8000FD8F80010AA
:1040600020F4907041E80002B2B1D8F8000050E8A6
:10407000000FD8F8001020F4907041E800025AB107
:10408000D8F8000050E8000FD8F8001020F4907025
:1040900041E80002002AD2D14FF6FE70CEF6FF7042
:1040A000D8F8001051E8021FD8F80020014042E87B
:1040B0000213F3B1D8F8001051E8021FD8F800201D
:1040C000014042E80213A3B1D8F8001051E8021FE2
:1040D000D8F80020014042E8021353B1D8F800108C
:1040E00051E8021FD8F80020014042E80213002BDB
:1040F000D6D1D8F86C0001282CD1D8F8000050E8AF
:10410000000FD8F8001020F0100041E800020AB3B8
:10411000D8F8000050E8000FD8F8001020F0100088
:1041200041E80002B2B1D8F8000050E8000FD8F81A
:10413000001020F0100041E800025AB1D8F8000049
:1041400050E8000FD8F8001020F0100041E80002FD
:10415000002AD2D120200021C8F88C00C8F86C10A9
:10416000C8F87410C8F89000032088F88410BDE8DF
:10417000F08100BF0320BDE8F08100BF082101628B
:10418000D8F8000050E8000FD8F8001020F4907024
:1041900041E800020AB3D8F8000050E8000FD8F850
:1041A000001020F4907041E80002B2B1D8F800008D
:1041B00050E8000FD8F8001020F4907041E8000299
:1041C0005AB1D8F8000050E8000FD8F8001020F4D9
:1041D000907041E80002002AD2D14FF6FE70CEF670
:1041E000FF70D8F8001051E8021FD8F800200140F5
:1041F00042E80213F3B1D8F8001051E8021FD8F8D2
:104200000020014042E80213A3B1D8F8001051E8A1
:10421000021FD8F80020014042E8021353B1D8F839
:10422000001051E8021FD8F80020014042E80213B4
:10423000002BD6D1D8F86C0001282CD1D8F800007A
:1042400050E8000FD8F8001020F0100041E80002FC
:104250000AB3D8F8000050E8000FD8F8001020F09A
:10426000100041E80002B2B1D8F8000050E8000F99
:10427000D8F8001020F0100041E800025AB1D8F838
:10428000000050E8000FD8F8001020F0100041E8BE
:104290000002002AD2D12020C8F88C00002008217A
:1042A000C8F86C00C8F87400C8F8901088F884004A
:1042B0000120BDE8F081000041F2CC30C2F20000E4
:1042C000FEF7EABBFEE70000F0B581B0044640F619
:1042D000140640F2004520200021C4F60006C4F672
:1042E000000500F015F92120002100F011F9284601
:1042F0004FF400710022FDF70FF84FF090404FF49B
:1043000080710122FDF708F828464FF480710022E1
:10431000FDF702F822203060284620210022FCF719
:10432000FBFF284620210122FCF7F6FF4FF49637C9
:1043300028464FF400710022FCF7EEFF4FF090404A
:104340004FF480710122FCF7E7FF28464FF480719B
:104350000122FCF7E1FF2846202100223460FCF70F
:10436000DBFF284620210122FCF7D6FF013FDFD1E9
:1043700001B0F0BD0278002A08BF70472DE9F04176
:1043800040F208080C46451E002740F23F16C2F2D4
:10439000000800BFA2F12000C1B2490051FA80F02C
:1043A00008EB0010B2B2214600F00CF8AA7832B146
:1043B000103E132F07F1010705F10105EAD3BDE80F
:1043C000F04170472DE9F04F83B040F6140B40F2F6
:1043D000004741F2702441F2DC1A0646C4F6000B95
:1043E0000025C4F60007C2F20004C2F2000A0192DE
:1043F0000291C9B2202000F08BF80199212000F031
:1044000087F838464FF4007100224FF00008FCF79F
:1044100083FF4FF090404FF480710122FCF77CFF46
:1044200038464FF480710022FCF776FF2220CBF84B
:104430000000384620210022FCF76EFF384620217C
:104440000122FCF769FF00BF36F815004FF4007138
:1044500020FA08F0C007504608BF2046B0F8009088
:1044600038460022FCF758FF4FF090404FF480711F
:104470000122FCF751FF38464FF480710122FCF70E
:104480004BFF384620210022CBF80090FCF744FF78
:10449000384620210122FCF73FFF08F10108B8F15E
:1044A000100FD1D102990135182D01F101019FD1D1
:1044B00003B0BDE8F08F000080B50020012100F0BE
:1044C00027F8032041F2180100F022F8072040F2FB
:1044D000731100F01DF8102041F2900100F018F85F
:1044E000112040F2272100F013F812201D2100F0C6
:1044F0000FF860204FF41C5100F00AF861200121F0
:1045000000F006F8FA20BDE88040FCF71BBE000072
:10451000F0B581B040F20044C4F600040D460646F2
:1045200020464FF400710022FCF7F6FE4FF0904059
:104530004FF480710122FCF7EFFE20464FF48071AA
:104540000022FCF7E9FE40F61407C4F600072046F7
:10455000202100223E60FCF7DFFE204620210122C0
:10456000FCF7DAFE20464FF400710022FCF7D4FE7F
:104570004FF090404FF480710122FCF7CDFE2046B1
:104580004FF480710122FCF7C7FE20462021002253
:104590003D60FCF7C1FE20462021012201B0BDE8AC
:1045A000F040FCF7B9BE000094B0FCF7CFFF002448
:1045B00000200C94CDE90A44CDE90844FDF764F8E5
:1045C000012006904FF480300621079002200F91C1
:1045D00055210D900325CDE91010CDE9120006A854
:1045E0000E95FDF719FC28B1EFF3108072B600BFED
:1045F000FEE700BF0F20CDE9010501A80421CDE9A8
:1046000003440594FDF714FA20B1EFF3108072B65D
:10461000FEE700BF40F20044C4F60004FEF754FF7A
:10462000FEF70AFFFFF71AF8FFF7BAF8FEF7E0FF08
:10463000FFF72EF941F24026C2F200060A20B071BF
:10464000FFF73AFF00204FF00008FFF73DFE44F669
:10465000A80A351D06F1070B06F11B07C0F6000A74
:10466000284600F09DF8C8B17079132816D8317922
:104670000D2902D00A2940F089800BF80080D6F875
:10468000070044F24131C0F24B01884286F80580B0
:1046900008BF00F093F80020FFF716FE707864283A
:1046A00022D3B27844F6AF013846C0F6000186F84E
:1046B0000180FBF7BBFE38461821FFF75BFEF2785E
:1046C00044F6BB013846C0F60001FBF7AFFE3846A2
:1046D0003021FFF74FFE384651465A46FBF7A6FEFB
:1046E00038464821FFF746FE20460121FCF70EFE22
:1046F00010B14FF000090AE00A20FCF723FD204624
:104700000121FCF703FEB0FA80F04FEA5019204671
:104710000221FCF7FBFD50B90A20FCF713FD2046EF
:104720000221FCF7F3FD002808BF4FF002092046E4
:104730000421FCF7EBFD50B90A20FCF703FD2046ED
:104740000421FCF7E3FD002808BF4FF003094FF0F8
:1047500090400121FCF7DAFD58B90A20FCF7F2FC81
:104760004FF090400121FCF7D1FD002808BF4FF029
:1047700004093078814518BF86F80090B9F1010F1F
:104780007FF46EAF00F01AF86AE700BF421C3044B5
:104790007271C17170786428BFF483AFA4E7000020
:1047A00080B5014641F2CC30C2F200000122002364
:1047B000FEF70AFDB0FA80F0400980BDB0B541F2C5
:1047C000CC3444F6C605C2F20004C0F6000520460B
:1047D000294601220023FEF761FD0A20FCF7B2FC06
:1047E000691C204601220023FEF758FD0A20FCF731
:1047F000A9FCA91C204601220023FEF74FFD0A2038
:10480000FCF7A0FCE91C204601220023FEF746FD30
:104810000A20BDE8B040FCF795BC30380A2801D228
:104820000120704700207047F1EE100A4FF6FF712B
:10483000C0F2C03120EA010040F04070E1EE100A01
:1048400070470400000800000000000000020001A2
:104850000000100000000000000000010203040638
:104860000708090000000001020304000100020023
:104870000400060008000A000C00100020004000A0
:1048800080000001000000000400000002000000A1
:1048900008000000010101030701000008040204F0
:1048A0000801010141434B007374723A25730052B1
:1048B000657365743A202530327500746573743AF7
:1048C00020253032750041434B0A0000F0480008B3
:1048D00000000020E01100003C020008784F0008B2
:1048E000E011002088080000A40200080000000079
:1048F0000007321000000001000103168001026170
:104900001EE13292CC02012A6A23600C02200F3091
:10491000063006FE1FFE1F3006380718030A200760
:10492000180318038C01023172201700E003F80FFE
:104930009C0E8C1C8C188C009800F801E007800EEF
:10494000800E100B189C18B80CF00FE0038026A105
:104950005A10090E181B0C110C110602101103112C
:10496000039B018E01C038C06C604460443002601B
:10497000071844186C0C38BE1005E001F0037A10DB
:10498000140618063003F001F000F8009C310E33D5
:10499000061E061C02E0063FFC73F021B8920C02D2
:1049A0000121E7100B0200038001C000C00060027B
:1049B000D230022114211C155E12032A1516322052
:1049C000123570120302D20602111425A2214ED60E
:1049D000208821481008D806F807E00130D2052ABF
:1049E000EAC405FC3FFC3FE8092C30196B031B01AE
:1049F000806C080533E007E0078F351EF57F750CE6
:104A0000155C351045624564D17AE00A03F0073839
:104A10000E180C0C1802D409180C380EF007E0031D
:104A2000B0214C0C071901F0019801880803A1601E
:104A300043F80F5E220002219C35F025ECD00718C8
:104A400000FC1FFC1F90100701F807180E0C012135
:104A5000C81805C003C00751113C41920210F890DC
:104A60004C0B0C000E000F000F800DC03003116BBB
:104A7000270C0CB209148513F80F9031893009EC1A
:104A800003FC071C0E001C98115E0005101C0C187E
:104A90000E602009C007F00F381C1818325409CCDA
:104AA00003EC0F3C0E1C1C2006121C2031D2458248
:104AB000357C16C07A3AE0C85A70DE05148021535E
:104AC00084073806F007F0078CE005380CF80F6013
:104AD0004130521C2430091C1C381EF81BE019D12F
:104AE000130C1CC00B1BF0018A012114011F30099B
:104AF0001ACE1C0510001C80720416F8DC1AF85C33
:104B000017800F600A1810F8C3F81F080D1E14054F
:104B1000180708003800F00114121F61161F9C13BB
:104B2000013814091770796E6D2603FD2E033D7C44
:104B300003400C18180420C229224A11440902EC2F
:104B40000C221113E20C024004201818980315D40B
:104B5000200403C00602396E2218022C07F83FF821
:104B60003F1C70AF052119D9106C0503FC0F0C5EBA
:104B70000310040CFC070E1A18A541021E180003AE
:104B8000FA0770BC0A1F38381C300C700660DD0450
:104B9000E008600C701C30F01F903C08FE03FE0F14
:104BA000060E06A105B1022DB305E8050EFE0FFEA7
:104BB000A01DCC048DA20529AEADB0053D3803C5BE
:104BC000A211DC4DBB032D27038005F81FF81F0E33
:104BD0004DD303DDCA043C0C0FF83F3C780E600651
:104BE000E007C0810411A11DC5031533DC090EC007
:104BF0003CF0F83FE00FBF03A23002319EB1120F2C
:104C0000260C3080070D15A005021406022531DCA4
:104C1000063807F003E0B004353A10140C06060617
:104C2000038601C60066007600DE008E01060312D0
:104C3000360C64DD4105021B18022530CD2103200E
:104C4000050EE01EF0024336D8022366CC0252C69F
:104C500001E40586C386C32010041C303C02126C9C
:104C60000212CC0210058C310C3302123602123CB7
:104C700002E638201C05E007F81F9904193EA3033B
:104C8000C002F80806600E701C38F8401BFC0F02CA
:104C9000CA38920E190CC407916082E05E140907AD
:104CA000E006630E3F1C3CE0CEF7910619825804E3
:104CB0001F06389C1E38C00876074C49B20E10609B
:104CC00030065DDE041D9B051BF80330331E0040DB
:104CD0001C050E301C1C1005ED000308042A7FFE85
:104CE0007F10E95EA97E0710181820430360BC6D91
:104CF00014072D16072D9409140570076003631D12
:104D0000E005E13023C3610283663302236C1B029A
:104D1000CC092C1A3C1E380E380E31051C090FE048
:104D20000C70183030183F043C040EC0075E0414A9
:104D30000503E00670F71D8107D006300E6007E01E
:104D4000602D79044C08301C383818300C65030D80
:104D50001C80075C05FC7FFC7F6D07DD7C072D2731
:104D600008253EED10082FE003AE06011E022128A3
:104D70002DA60A6DA6094DA8091D64096D0E0B7EAE
:104D800003A009F1600221000261601D82071D4439
:104D900007256C3F6003D704291901390112FF016F
:104DA0000D39AE0A9D4A081805F003F807AA2C072A
:104DB0000C000FF00FF8B1081F0C1C5C080F16F068
:104DC0001820041ED8A80B1E38370881012DE007D3
:104DD0000F17D803DA091D9A096F300E39092DA370
:104DE000081E309009EEC00009711F2805C01BF095
:104DF0001F368160000719301CF01FC01B601E0F9A
:104E000083066E18D4051952EC051CF00FC0F0068D
:104E100044040FC00FDA2D9C0855E4B1020D17D4DD
:104E20000A1E0DFA093DCA0961011D600924050F1A
:104E3000E00D002A6E06AA0895204F07F86A09D1EE
:104E4000010D16F00A0215C002012E3041DEEC04FD
:104E5000F80078BE0C1C050C0C060C6A0D100DCC6D
:104E6000006C00FC009C018C030C03120E100C560D
:104E70000C011C020D169009E0097C3CFF7EC7E383
:104E800083C1020D16EA0B062398200510E0991045
:104E90001D0E0E0A17C0700916A00D16EA07091795
:104EA000700D151B081EB06E07FE70E20D0E183057
:104EB000140D1E037A0E1D1A0B1DF2093D060C0D72
:104EC00015900C1D020F0919A00F170780EA0D0994
:104ED000106A1238C01D4C0B0D15DB0A4DFE053E45
:104EE00018920F1DB7060E140300068DF80F300838
:104EF000C141C141C3616301323601321C010D164B
:104F0000F00F3E1CF70952605A1D5E061D75061E05
:104F100038E10B0117C01D36061D38062E18281063
:104F20002FE00C940A2D3E064DF00D1DA20D1D70B4
:104F30000C0D159A0C0D1B800D8D300B8D320E2D26
:104F4000E205BA40D63D900F0D259009CD22119E65
:104F50006024069DC60FB3030048FEC0A80E5D7412
:104F6000050C061910F81F080F35111F24F4E2056F
:084F7000030000000000000036
:04000005080001D915
:00000001FF
